:100000000C9477000C94DD000C94DD000C94DD0062
:100010000C94DD000C94DD000C94DD000C94DD00EC
:100020000C94DD000C94DD000C94DD000C94DD00DC
:100030000C94DD000C94DD000C94DD000C941E1576
:100040000C94DD000C94DD000C9455190C94B71938
:100050000C94DD000C94DD000C94DD000C94DD00AC
:100060000C94DD000C94DD000C94DD000C94DD009C
:100070000C94DD000C94DD000C94DD000C94DD008C
:100080000C94DD000C94DD000C94DD00B11AB41A60
:10009000B71ABF1AC21AC51AC81ACB1ACE1AFD1A35
:1000A000221B271B2C1B311B361B4B1B4F1B8A1B78
:1000B000951BA31BAE1AAE1AAE1AAE1AE71BEA1BAB
:1000C000F11B041C071C111CAE1A141C1C1C1F1C49
:1000D000271C2A1C321C351C3D1C541B691B751B1C
:1000E0008A1BAE1AAE1AAE1AAE1AA71BD51B80EC2D
:1000F00085BFAF9AA79AAE9AA69A81EE80930083A5
:1001000080E48093018385B78F7785BF80E090E09E
:100110009D9B05C0019641F09D9BF8CFFBCF0196BA
:1001200019F09D99F3CFFBCF85B7806885BFAF9855
:10013000A798AE98A69811241FBECFEFD0E1DEBFDE
:10014000CDBF15E0A0E0B1E0E4E1F3E500E00BBFD6
:1001500002C007900D92A034B107D9F716E0A0E4D1
:10016000B5E001C01D92A631B107E1F78FEF9FE71F
:100170009EBF8DBF8FEF9FE786519640815891407B
:1001800050F04FEF5EE74651564081EF95E066E153
:1001900076E00E94E80D0E946B130E94461382E3F2
:1001A00093E06BEF7CE040E050E020E831E00E941B
:1001B000AF130E9400000C9488290C940000EF9269
:1001C000FF920F931F937B018C0120E030E040E011
:1001D0005FE40E94DF0388238CF0C801B70120E0B0
:1001E00030E040E05FE40E9457020E943F049B0120
:1001F000AC01205030404040504806C0C801B70113
:100200000E943F049B01AC01B901CA011F910F91EB
:10021000FF90EF900895A0E0B0E0E1E1F1E00C94F0
:100220009627DC012B01FA019C91923008F439C128
:10023000EB018881823008F433C1943069F4843052
:1002400009F02FC111969C9111978981981709F493
:1002500028C1A8E3B4E025C1843009F421C182306B
:10026000A9F4923009F01DC19A01AD0188E0EA01BC
:100270000990AE01E90109929E018150C1F7E201A6
:10028000898111969C918923818308C1923009F458
:1002900007C112962D903C901397EB018A819B81A8
:1002A0001496AD90BD90CD90DC901797EC80FD80BA
:1002B0000E811F819101281B390BB90137FF04C042
:1002C00066277727621B730B603271050CF061C0E3
:1002D000121613066CF537014801062E04C09694D9
:1002E0008794779467940A94D2F721E030E040E055
:1002F00050E004C0220F331F441F551F6A95D2F7E8
:1003000021503040404050402E213F214023512376
:10031000211531054105510521F021E030E040E093
:1003200050E079018A01E628F728082919293CC0FC
:10033000232BD1F1260E371E35014601062E04C0AF
:1003400096948794779467940A94D2F721E030E0EA
:1003500040E050E004C0220F331F441F551F6A9530
:10036000D2F721503040404050402A213B214C21BF
:100370005D21211531054105510521F021E030E0D5
:1003800040E050E059016A01A628B728C828D928BA
:100390000BC0821593052CF01C01AA24BB24650117
:1003A00003C0EE24FF24870111969C91D20111967F
:1003B0008C91981709F445C0992339F0A801970149
:1003C0002A193B094C095D0906C0A60195012E19A1
:1003D0003F09400B510B57FD08C011823382228226
:1003E00024833583468357831DC081E08183338214
:1003F000228288279927DC01821B930BA40BB50B63
:1004000084839583A683B7830DC0220F331F441FB7
:10041000551F2483358346835783828193810197B7
:10042000938382832481358146815781DA01C90112
:100430000197A109B1098F5F9F4FAF4FBF4328F3C9
:100440000BC0918333822282EA0CFB1C0C1D1D1D04
:10045000E482F5820683178383E0808324813581DB
:100460004681578157FF1AC0C901AA2797FDA09559
:10047000BA2F81709070A070B070569547953795DF
:100480002795822B932BA42BB52B84839583A6834E
:10049000B78382819381019693838283DF0101C0B8
:1004A000D201CD01CDB7DEB7E2E10C94B227A0E2D4
:1004B000B0E0EDE5F2E00C94A22769837A838B83A8
:1004C0009C832D833E834F835887E9E0EE2EF12CE9
:1004D000EC0EFD1ECE010196B7010E9430068E0182
:1004E0000F5E1F4FCE010596B8010E9430068A8923
:1004F00091E089278A8BC701B801AE01475E5F4F43
:100500000E940B010E945B05A096E6E00C94BE27BA
:10051000A0E2B0E0EEE8F2E00C94A22769837A83CF
:100520008B839C832D833E834F835887F9E0EF2E86
:10053000F12CEC0EFD1ECE010196B7010E94300693
:100540008E010F5E1F4FCE010596B8010E94300646
:10055000C701B801AE01475E5F4F0E940B010E94C8
:100560005B05A096E6E00C94BE27A0E2B0E0EBEBC2
:10057000F2E00C94962769837A838B839C832D8386
:100580003E834F835887CE010196BE01675F7F4F40
:100590000E943006CE010596BE016F5E7F4F0E941D
:1005A00030069985923088F089898230C8F094307D
:1005B00019F4823051F404C0843029F4923081F46B
:1005C00088E394E0C6C0923049F420E09A858A8995
:1005D000981321E02A87CE010996BBC0823049F4E6
:1005E00020E09A858A89981321E02A8BCE014196D2
:1005F000B0C02D843E844F8458886D887E888F8853
:10060000988CEE24FF248701AA24BB24650140E0D6
:1006100050E060E070E0E0E0F0E0C10181709070D7
:10062000892BE9F0E60CF71C081D191D9A01AB0196
:100630002A0D3B1D4C1D5D1D80E090E0A0E0B0E068
:10064000E614F7040805190520F481E090E0A0E025
:10065000B0E0BA01A901480F591F6A1F7B1FAA0CFD
:10066000BB1CCC1CDD1C97FE08C081E090E0A0E024
:10067000B0E0A82AB92ACA2ADB2A3196E032F1056D
:1006800049F0660C771C881C991C56944794379443
:100690002794C3CFFA85EA892B893C898B859C8571
:1006A000280F391F2E5F3F4F17C0CA01817090700D
:1006B000892B61F016950795F794E79480E090E018
:1006C000A0E0B0E8E82AF92A0A2B1B2B769567955B
:1006D000579547952F5F3F4F77FDE7CF0CC0440FED
:1006E000551F661F771F17FD4160EE0CFF1C001F92
:1006F000111F21503040403090E0590790E06907C9
:1007000090E4790760F32B8F3C8FDB01CA018F7770
:100710009070A070B07080349105A105B10561F4AE
:1007200047FD0AC0E114F1040105110529F0405C00
:100730005F4F6F4F7F4F40781A8EFE1711F081E0A8
:100740008A8F4D8F5E8F6F8F78A383E0898FCE0164
:1007500049960E945B05A096E2E10C94B227A8E1BD
:10076000B0E0E5EBF3E00C94A22769837A838B83F6
:100770009C832D833E834F83588789E0E82EF12C9C
:10078000EC0EFD1ECE010196B7010E9430068E01CF
:100790000F5E1F4FCE010596B8010E943006898575
:1007A000823040F08989823028F0C701B8010E9468
:1007B000A80601C08FEF6896E6E00C94BE27A8E17A
:1007C000B0E0E5EEF3E00C94A22769837A838B8393
:1007D0009C832D833E834F83588789E0E82EF12C3C
:1007E000EC0EFD1ECE010196B7010E9430068E016F
:1007F0000F5E1F4FCE010596B8010E943006898515
:10080000823040F08989823028F0C701B8010E9407
:10081000A80601C08FEF6896E6E00C94BE27A8E119
:10082000B0E0E5E1F4E00C94A22769837A838B833E
:100830009C832D833E834F83588789E0E82EF12CDB
:10084000EC0EFD1ECE010196B7010E9430068E010E
:100850000F5E1F4FCE010596B8010E9430068985B4
:10086000823040F08989823028F0C701B8010E94A7
:10087000A80601C081E06896E6E00C94BE27ACE0D3
:10088000B0E0E5E4F4E00C94A62769837A838B83D7
:100890009C83CE010196BE016B5F7F4F0E943006A4
:1008A0008D81823061F1823050F1843021F48E816B
:1008B000882351F12EC02F81388537FD20C06E81ED
:1008C0002F3131051CF06623F9F023C08EE190E052
:1008D000821B930B29853A854B855C8504C0569510
:1008E0004795379527958A95D2F76623B1F05095AD
:1008F0004095309521953F4F4F4F5F4F0EC020E000
:1009000030E040E050E009C02FEF3FEF4FEF5FE7EE
:1009100004C020E030E040E050E8B901CA012C9664
:10092000E2E00C94C227A8E0B0E0E9E9F4E00C941E
:100930009E277B018C01611571058105910519F4D4
:1009400082E0898360C083E089838EE1C82ED12C48
:10095000DC82CB82ED82FE820F831887C801B7014B
:100960000E940C05FC013197F7FF3BC0222733277B
:100970002E1B3F0B57016801022E04C0D694C7946A
:10098000B794A7940A94D2F740E050E060E070E09A
:1009900081E090E0A0E0B0E004C0880F991FAA1F9A
:1009A000BB1F2A95D2F70197A109B1098E219F217A
:1009B000A023B1230097A105B10521F041E050E04B
:1009C00060E070E04A295B296C297D294D835E83B4
:1009D0006F8378878EE190E08E1B9F0B9C838B83C7
:1009E00012C0309781F00E2E04C0EE0CFF1C001FC9
:1009F000111F0A94D2F7ED82FE820F831887CE1A58
:100A0000DF0ADC82CB821A82CE0101960E945B054E
:100A10002896EAE00C94BA27EF92FF920F931F9367
:100A20007B018C0180E0E81680E0F80681E0080791
:100A300080E0180788F48FEFE816F104010511052E
:100A400031F028F088E090E0A0E0B0E017C080E04E
:100A500090E0A0E0B0E012C080E0E81680E0F80688
:100A600080E0080781E0180728F088E190E0A0E026
:100A7000B0E004C080E190E0A0E0B0E020E230E02F
:100A800040E050E0281B390B4A0B5B0B04C0169565
:100A90000795F794E7948A95D2F7F701E05CFB4F4E
:100AA0008081281B310941095109C9011F910F910A
:100AB000FF90EF900895DF92EF92FF920F931F93B4
:100AC000FC01E480F58006811781D180808182302D
:100AD00048F480E090E0A0E1B0E0E82AF92A0A2B8F
:100AE0001B2BA5C0843009F49FC0823021F4EE2472
:100AF000FF24870105C0E114F1040105110519F473
:100B0000E0E0F0E096C0628173819FEF6238790780
:100B10000CF05BC022E83FEF261B370B2A31310572
:100B20002CF020E030E040E050E02AC0B801A701FE
:100B3000022E04C076956795579547950A94D2F78B
:100B400081E090E0A0E0B0E004C0880F991FAA1FE8
:100B5000BB1F2A95D2F70197A109B1098E219F21C8
:100B6000A023B1230097A105B10521F081E090E019
:100B7000A0E0B0E09A01AB01282B392B4A2B5B2B6C
:100B8000DA01C9018F779070A070B0708034910540
:100B9000A105B10539F427FF09C0205C3F4F4F4F35
:100BA0005F4F04C0215C3F4F4F4F5F4FE0E0F0E0EC
:100BB0002030A0E03A07A0E04A07A0E45A0710F06E
:100BC000E1E0F0E079018A0127C06038710564F541
:100BD000FB01E158FF4FD801C7018F779070A070DB
:100BE000B07080349105A105B10539F4E7FE0DC060
:100BF00080E490E0A0E0B0E004C08FE390E0A0E0EB
:100C0000B0E0E80EF91E0A1F1B1F17FF05C016955E
:100C10000795F794E794319687E016950795F79432
:100C2000E7948A95D1F705C0EE24FF248701EFEF02
:100C3000F0E06E2F679566276795902F9F77D79482
:100C4000DD24D7948E2F8695492F462B582F5D296A
:100C5000B701CA011F910F91FF90EF90DF900895A7
:100C6000FC01DB01408151812281622F6F7770E0AE
:100C7000221F2227221F9381892F880F822B282F42
:100C800030E0991F9927991F11969C931197211570
:100C90003105A9F5411551056105710511F482E091
:100CA00037C082E89FEF13969C938E9312979A0118
:100CB000AB0167E0220F331F441F551F6A95D1F720
:100CC00083E08C930DC0220F331F441F551F1296D3
:100CD0008D919C911397019713969C938E931297E5
:100CE000203080E0380780E0480780E4580758F358
:100CF00014962D933D934D935C93179708952F3F32
:100D0000310579F4411551056105710519F484E047
:100D10008C93089564FF03C081E08C9312C01C92F1
:100D200010C02F57304013963C932E93129783E0B8
:100D30008C9387E0440F551F661F771F8A95D1F764
:100D4000706414964D935D936D937C9317970895FB
:100D50001F93DC01FB019C91923008F447C0808115
:100D6000823008F443C0943051F411961C918430C1
:100D700099F58181682F70E0611B71093FC0843053
:100D800021F0923031F48230B9F18181882389F1E8
:100D90002DC011961C9111978230F1F081811817A6
:100DA000D9F412962D913C911397828193818217E9
:100DB000930794F028173907BCF014968D919D91F4
:100DC0000D90BC91A02D2481358146815781281733
:100DD00039074A075B0718F4112341F00AC082174C
:100DE0009307A407B50740F4112319F061E070E000
:100DF00005C06FEF7FEF02C060E070E0CB011F9194
:100E000008952F923F924F925F926F927F928F92AE
:100E10009F92AF92BF92CF92DF92EF92FF920F9389
:100E20001F936091ED057091EE0580E090E00E94C7
:100E300093045B016C016091EA057091EB0580E021
:100E400090E00E9493042AE037ED43E25CE30E94C5
:100E5000B50220E030E040E252E40E9457021B015C
:100E60002C0120E030E048EC51E40E9457027B0165
:100E70008C01C601B5012CEA35EC47EA58E30E9423
:100E8000B5022AE037ED43E25CE30E9488029B0151
:100E9000AC01C801B7010E94B5023B014C01C6017B
:100EA000B50122EA37EE4BE356EB0E94B502A601EC
:100EB00095010E94B5027B018C01C601B50124E5B4
:100EC00033EE45E25DE30E94B5029B01AC01C8012F
:100ED000B7010E94880220E030E040E850E40E9420
:100EE00057029B01AC01C401B3010E9488027B013F
:100EF0008C0120E030E048EC52E40E94AF03181669
:100F00005CF40F2EF0E0EF2EF0E0FF2EF8EC0F2F48
:100F1000F2E41F2FF02D14C0C801B7012DEC3CECFA
:100F20004CEC5DE30E940F04882354F40F2EFDEC7B
:100F3000EF2EFCECFF2EFCEC0F2FFDE31F2FF02D0E
:100F4000C201B1010E94DF007093EB056093EA05D6
:100F5000C801B7010E94DF007093EE056093ED05B4
:100F60001F910F91FF90EF90DF90CF90BF90AF90C7
:100F70009F908F907F906F905F904F903F902F90B9
:100F80000895139A87B3806F87BB81B38F6081BB4D
:100F900018BA80E091E060E278E040E050E020E0C4
:100FA00032E00E94AF1383E091E061E178E040E03D
:100FB00050E020E032E00E94AF1386E091E060E074
:100FC00078E040E050E020E032E00E94AF1389E09A
:100FD00091E06CE17AE040E050E020E032E00E94F5
:100FE000AF13C09A64EF71E080E090E00E94C810F7
:100FF000C09864EF71E080E090E00E94C810F1CFEB
:10100000C69A60ED77E080E090E00E94C810C69834
:10101000C79A60ED77E080E090E00E94C810C79822
:10102000EFCFC59A68EE73E080E090E00E94C810B0
:10103000C59868EE73E080E090E00E94C810F1CFA0
:10104000C49A64EF71E080E090E00E94C810C498F8
:1010500064EF71E080E090E00E94C810F1CFCF9281
:10106000DF92EF92FF920F931F93CF93DF93C0E035
:10107000D0E028E0C22ED12C7C010027F7FC00959F
:10108000102F82B3807F82BB22B3C6010C2E02C018
:10109000959587950A94E2F7282B22BBC801B701E2
:1010A0000E94C8102196C430D10559F7DF91CF9125
:1010B0001F910F91FF90EF90DF90CF900895CF9206
:1010C000DF92EF92FF920F931F93CF93DF93C0E0D5
:1010D000D0E031E0C32ED12C7C010027F7FC009535
:1010E000102F82B3807F82BB22B3C6010C2E02C0B8
:1010F000880F991F0A94E2F7282B22BBC801B70179
:101100000E94C8102196C430D10559F7DF91CF91C4
:101110001F910F91FF90EF90DF90CF900895EF9285
:10112000FF920F931F93CF93DF937B01C8E0D0E032
:1011300002C0CC0FDD1F8A95E2F7C8BB0027F7FC81
:101140000095102FC801B7010E94C81088B39E01F6
:101150002095922F982398BBC801B7010E94C81010
:10116000DF91CF911F910F91FF90EF9008958FE441
:1011700093E060E070E040E00E941B138CE091E09F
:1011800062E171E00E948F1F9093F0058093EF055C
:101190000E948B1F61E071E04AE153E00E94641FEE
:1011A000089512981B9863E070E080E090E00E9440
:1011B00027101B9A63E070E080E090E00E94271007
:1011C000129A63E070E080E090E00E9427101B9884
:1011D00066E070E080E090E00E9427101B9A63E0D8
:1011E00070E080E090E00E942710129863E070E0C9
:1011F00080E090E00E9427101B9808951F9312989A
:101200001B9863E070E080E090E00E94271010E0FF
:101210001B9A63E070E080E090E00E9427101B982A
:1012200063E070E080E090E00E9427101F5F1930BB
:1012300079F70E94D1081F910895FF920F931F9391
:10124000CF93DF93F82E129810E800E0C0E0D0E0D2
:101250001B9A63E070E080E090E00E9427100A99FA
:10126000012B1B9863E070E080E090E00E94271063
:1012700016952196C830D10559F7FF2011F0129A22
:1012800001C012981B9A66E070E080E090E00E9436
:1012900027101B9863E070E080E090E00E94271028
:1012A0001298802FDF91CF911F910F91FF90089599
:1012B0000F931F93CF93DF93082F10E8C0E0D0E087
:1012C000812F802311F0129801C0129A62E070E021
:1012D00080E090E00E9427101B9A66E070E080E0BA
:1012E00090E00E9427101B9863E070E080E090E09F
:1012F0000E94271016952196C830D10509F712983B
:101300001B9A63E070E080E090E00E94271011B12A
:1013100062E070E080E090E00E9427101B98812F2F
:101320008470DF91CF911F910F910895DF92EF921A
:10133000FF920F931F930E94D10883E00E945809E7
:10134000D82EEE24FF24870165E070E080E090E075
:101350000E9427100A9B0EC00894E11CF11C011D7D
:10136000111D80E8E8168AE1F80686E0080780E0AB
:10137000180751F70A99D39481E00E941D09182F8C
:1013800000E01093EB050093EA0581E00E941D093F
:10139000080F111D1093EB050093EA0580E00E94F1
:1013A0001D098093E9058D2D1F910F91FF90EF90FE
:1013B000DF900895DF92EF92FF920F931F9385E0E5
:1013C0000E945809D82EEE24FF24870165E070E0C2
:1013D00080E090E00E9427100A9B0EC00894E11C58
:1013E000F11C011D111D80E8E8168AE1F80686E06F
:1013F000080780E0180751F70A99D39481E00E940A
:101400001D09182F00E01093EE050093ED0581E013
:101410000E941D09080F111D1093EE050093ED05A4
:1014200080E00E941D098093EC058D2D1F910F9186
:10143000FF90EF90DF900895DF93CF93CDB7DEB7A5
:10144000AD970FB6F894DEBF0FBECDBF0E94B708B0
:10145000BEE0AB2EB12CAC0EBD1EAEEDCA2EA1E08F
:10146000DA2EFAE08F2E912C8C0E9D1EECE06E2E63
:10147000712C6C0E7D1E7BE1472E72E0572E61EEC3
:10148000262E61E0362E80E2D5011D928A95E9F77D
:101490006091EF057091F00585E191E00E942920AF
:1014A0006091EF057091F00584E391E00E9429209E
:1014B0006091EF057091F0058AE791E00E94292084
:1014C0008091EF059091F0050E94791F4091EF0502
:1014D0005091F00580E495E062E370E00E94ED1F1A
:1014E00080E495E06AE070E00E943329FC010097F7
:1014F00009F0108200D000D000D0EDB7FEB73196D1
:1015000080E495E0ADB7BEB712969C938E93119789
:10151000ACE8B1E0B383A28381E090E08C0F9D1F23
:10152000958384830E944420ADB7BEB716960FB64C
:10153000F894BEBF0FBEADBF8981823309F42FC1BD
:10154000833309F46AC1813309F09DCF6091EF05BF
:101550007091F0058FE891E00E9429206091EF05DD
:101560007091F0058BEA91E00E9429208091EF05AF
:101570009091F0050E94791F4091EF055091F00580
:1015800082E795E062E370E00E94ED1F82E795E05C
:101590006AE070E00E943329FC01009709F0108294
:1015A0008501EE24FF24E114F10419F080E090E0BD
:1015B00002C082E795E06CED71E00E941429F80109
:1015C00091838083892B49F00894E11CF11C0E5F04
:1015D0001F4FF0E1EF16F10431F781E090E09D83B9
:1015E0008C8384E690E09F838E8300D000D000D06F
:1015F000EDB7FEB731968E859F85ADB7BEB7129613
:101600009C938E931197D382C282CE0102969583CA
:1016100084830E944420EDB7FEB736960FB6F89447
:10162000FEBF0FBEEDBFE114F10409F440C000D0CD
:1016300000D000D0EDB7FEB7319688899989ADB753
:10164000BEB712969C938E931197D382C282CE011D
:101650000496958384830E944420EDB7FEB73696A6
:101660000FB6F894FEBF0FBEEDBFF1E0EF16F10428
:10167000F1F000D000D000D0EDB7FEB731968A89E6
:101680009B89ADB7BEB712969C938E931197D38268
:10169000C282CE010696958384830E944420EDB7D2
:1016A000FEB736960FB6F894FEBF0FBEEDBF8C8125
:1016B0009D812091EF053091F005892BC1F18DB707
:1016C0009EB708970FB6F8949EBF0FBE8DBFEDB7BB
:1016D000FEB73196ADB7BEB712963C932E931197D5
:1016E000338222828A819B81880F991F880F991FDC
:1016F000958384838E819F81978386830E9418209F
:1017000000E010E0EDB7FEB738960FB6F894FEBFD4
:101710000FBEEDBF06C08E819F810E945F080F5FE4
:101720001F4F8A819B8108171907ACF3ACCE8DB788
:101730009EB708970FB6F8949EBF0FBE8DBFEDB74A
:10174000FEB73196ADB7BEB712963C932E93119764
:10175000538242828A819B81880F991F880F991F2B
:10176000958384838E819F81978386830E9418202E
:1017700000E010E0EDB7FEB738960FB6F894FEBF64
:101780000FBEEDBF06C08E819F810E942F080F5FA4
:101790001F4F8A819B8108171907ACF374CE0E94F2
:1017A000FE080E94DA09182F0E949609180F19F0F6
:1017B0000E94FE0802C00E9401078DB79EB70897DD
:1017C0000FB6F8949EBF0FBE8DBFEDB7FEB7319632
:1017D0008091EF059091F005ADB7BEB712969C933E
:1017E0008E93119784E592E0938382838091EA053A
:1017F0009091EB05958384838091ED059091EE05A2
:10180000978386830E941820ADB7BEB718960FB68F
:10181000F894BEBF0FBEADBF36CE6091EF0570919C
:10182000F00583E992E00E9429206091EF05709114
:10183000F00585EA92E00E9429208091EF059091C1
:10184000F0050E94791F4091EF055091F00584EA60
:1018500095E062E370E00E94ED1F84EA95E06AE0A3
:1018600070E00E943329FC01009709F01082850185
:10187000EE24FF24E114F10419F080E090E002C0AE
:1018800084EA95E06CED71E00E941429F8019183DF
:101890008083892B49F00894E11CF11C0E5F1F4FD7
:1018A000F0E1EF16F10431F788EE93E09B878A8729
:1018B00081E090E09D878C8700D000D000D0EDB70C
:1018C000FEB731968E859F85ADB7BEB712969C93B5
:1018D0008E931197D382C28288E090E08C0F9D1F77
:1018E000958384830E944420ADB7BEB716960FB689
:1018F000F894BEBF0FBEADBFE114F104E1F100D01A
:1019000000D000D0EDB7FEB7319688899989ADB780
:10191000BEB712969C938E931197D382C282958202
:1019200084820E944420EDB7FEB736960FB6F89435
:10193000FEBF0FBEEDBFF1E0EF16F104E1F000D005
:1019400000D000D0EDB7FEB731968A899B89ADB73C
:10195000BEB712969C938E931197D382C2827582E2
:1019600064820E944420EDB7FEB736960FB6F89415
:10197000FEBF0FBEEDBF8DB79EB70A970FB6F894A6
:101980009EBF0FBE8DBFEDB7FEB731968091EF05BC
:101990009091F005ADB7BEB712969C938E931197B8
:1019A00081EE92E0938382838885998595838483F1
:1019B0008C859D85978386838A859B859187808783
:1019C0000E94182000E010E0ADB7BEB71A960FB61F
:1019D000F894BEBF0FBEADBF08C06A857B85888501
:1019E00099850E948F080F5F1F4F8C859D85081772
:1019F00019079CF348CD0E94A51187E393E061ECA1
:101A000077E040E050E020E033E00E94AF138EEF3B
:101A10000E94DC0E0E94580F0E94A40E20913C03ED
:101A20002F3FC1F395B785B7837E822B85BF85B7DE
:101A3000806285BF889585B78F7D85BF85B79C718E
:101A4000837E982B95BFE6CFCF93DF93DC016E5F4B
:101A50007F4F6430710510F464E070E06F5F7F4F7A
:101A60006E7FED91FC911197AD01A0E0B0E0C0E078
:101A7000D0E01BC0208131812617370780F01097F6
:101A800031F08D919C9111972817390740F4261752
:101A9000370719F4DF01EA010DC0DF01EA01AF01E8
:101AA0004E5F5F4F0280F381E02D309719F79D0163
:101AB0001097F1F08D919C911197861B970B1296C0
:101AC0002D913C9113978430910568F0FD01E60F4C
:101AD000F71F918380833383228311967C936E93C7
:101AE000F983E88302C0398328839D012E5F3F4F2D
:101AF000C901DF91CF910895CF93DF93EC01611578
:101B0000710519F42DEF3FEF5FC0DB011297E881FB
:101B1000F9814FC020813181CF01820F931F8A1735
:101B20009B07E9F46D917C91620F731F7183608351
:101B3000DF01A60FB71F82819381A817B90709F0AB
:101B400041C08D919C911197680F791F71836083BB
:101B500012968D919C9113979383828333C0AE1715
:101B6000BF07E0F4B983A8834D915C911197CD0133
:101B7000840F951F8E179F0761F4240F351F119650
:101B80003C932E938281938113969C938E9312970C
:101B900019C01396FC93EE93129714C0A817B907B7
:101BA00018F42FEF3FEF10C0EF0122960280F3816F
:101BB000E02D309709F0AECF13961C921E9212972B
:101BC000B983A88320E030E0C901DF91CF91089567
:101BD0006F5F7F4FFB01EE7F61507040640F751F98
:101BE0006E1B7F0B6E7F61937193BF010E947C0D12
:101BF0000895CF93DF93DC01EB0158967C936E93AD
:101C0000579715961C921E9214970FB6F8940F9240
:101C1000E881F9818FEFEF3FF80761F414968D9119
:101C20009C911597019615969C938E931497E0E0DE
:101C3000F0E015C0309799F00F900FBE52969C912E
:101C4000529707C0EF0122960280F381E02D309772
:101C500019F082899817B0F70FB6F8940F9213967F
:101C6000FC93EE931297B983A8831296ED91FC91A1
:101C70001397309791F084819581892B71F0149698
:101C80002D913C91159784819581820F931F159614
:101C90009C938E931497158214820F900FBEDF9140
:101CA000CF910895CF93DF93DC01EB010FB6F89449
:101CB0000F92E881F9810F900FBE8FEFEF3FF80789
:101CC00099F534C0EA17FB0751F50FB6F8940F9257
:101CD00012968D919C9113979983888314968D9178
:101CE0009C911597892B81F01296ED91FC91139799
:101CF000309731F014968D919C911597958384833C
:101D000015961C921E9214970F900FBE13961C925C
:101D10001E92129758961C921E92579707C0EF0179
:101D200022960280F381E02D309761F6DF91CF910A
:101D30000895FB01168A158A82E08787CB0165EF3B
:101D400075E00E94F90D0895E091F905F091FA050A
:101D5000309751F06389748981EF95E00E947C0D82
:101D60001092FA051092F9050895CF93DF93C09170
:101D7000F305D091F4050E94A40E4091F70550910F
:101D8000F805E3EFF5E00BC028813981C417D507CA
:101D900019F42083318305C0FE01C901EC012097AD
:101DA00099F78091F7059091F8059093FA05809343
:101DB000F905DF91CF9108950F931F93182FE091AC
:101DC000F705F091F8050289CF0165EF75E00E94F3
:101DD000520EE091F705F091F805128B1F3F31F09C
:101DE000CF0165EF75E00E94F90D02C00E94B50EAB
:101DF000E091F705F091F8058091F5059091F605D1
:101E0000E817F90719F481E0878709C082E087871E
:101E10000FB6F8940F920E9474130F900FBE802F8C
:101E20001F910F910895CF93DF93C091F305D09147
:101E3000F40520C00FB6F8940F928C819D810F900D
:101E40000FBE892BA1F0EF89F88D0FB6F8940F9291
:101E50008C819D8101979D838C830F900FBE808123
:101E600091818F5F9F4F19F0CF010E94AD110990B2
:101E7000D881C02D2097F1F60E941711E091F70547
:101E8000F091F8058091F5059091F605E817F907AE
:101E900061F08785813011F482E087870FB6F8946E
:101EA0000F920E9474130F900FBEDF91CF9108958F
:101EB000E091F705F091F80582819381892B69F013
:101EC000CF0165EF75E00E94520E8091F705909169
:101ED000F80565EF75E00E94F90D0E94130F089553
:101EE0008091FD059091FE05A091FF05B09100063F
:101EF0000196A11DB11D8093FD059093FE05A09351
:101F0000FF05B09300060895CF93DF93EC011B8289
:101F10001A82E091FB05F091FC0523C028853985E4
:101F20004A855B8580859185A285B3852817390709
:101F30004A075B0748F4821B930BA40BB50B808701
:101F40009187A287B3870FC0281B390B4A0B5B0B05
:101F5000288739874A875B87FB83EA830190F08172
:101F6000E02D3097D9F6F983E883309711F0D383C9
:101F7000C283EA81FB81309719F0D183C08304C00A
:101F8000D093FC05C093FB05DF91CF910895CF93CB
:101F9000DF93FC011482158216821782158614863F
:101FA00080859185A285B3850097A105B10561F172
:101FB000A281B38180819181109719F08D939C93B8
:101FC00004C09093FC058093FB05C081D1812097CC
:101FD000A1F0828193819B838A8388859985AA85D4
:101FE000BB852085318542855385820F931FA41FB1
:101FF000B51F88879987AA87BB87108611861286A6
:102000001386CF010E94840FDF91CF9108956091D4
:10201000DA057091DB058091DC059091DD05611595
:1020200071058105910569F480E090E00E944F14EC
:1020300090686093DA057093DB058093DC059093DC
:10204000DD059B01AC015F77B901CA010895EF92EC
:10205000FF920F931F937B018C010E9407109B013D
:10206000AC01232F342F452F5527C801B7010E94FB
:10207000552724E837ED47E150E00E947427C90155
:102080000197F1F71F910F91FF90EF9008951F9323
:10209000182F07C068EE73E080E090E00E942710E0
:1020A00011501123B9F71F910895AF92BF92CF92AB
:1020B000DF92EF92FF920F93CF93DF936B017C013E
:1020C000EA01590181EF95E060E170E00E94240D82
:1020D000FC01009781F10FB6F8940F928091FD05F5
:1020E0009091FE05A091FF05B09100060F900FBEE4
:1020F0002091D6053091D7054091D8055091D9054A
:10210000821B930BA40BB50B8C0D9D1DAE1DBF1D2B
:1021100080879187A287B38700FF05C0148215824C
:102120001682178204C0C482D582E682F782D587E0
:10213000C487B786A686CF01DF91CF910F91FF901C
:10214000EF90DF90CF90BF90AF9008950F93CF9313
:10215000DF930E945510EC01009711F00E94840F4C
:10216000CE01DF91CF910F910895CF92DF92EF9240
:10217000FF920F937A0169010E945814A7019601FA
:102180000E94A6100F91FF90EF90DF90CF900895DE
:10219000AF92BF92CF92DF92EF92FF920F93CF93C5
:1021A000DF935B016C01611571058105910599F162
:1021B000C5EFD5E08091F7059091F805BE010E942A
:1021C000520EE090F705F090F80583E0F70187875D
:1021D000C601B50149E95EE0970101E00E94B51032
:1021E000F701968B858B892B19F00E94130F15C070
:1021F000E091F705F091F805D08FC78B8091F50538
:102200009091F6059383828381E08787F093F605AA
:10221000E093F50502C00E94580FDF91CF910F9116
:10222000FF90EF90DF90CF90BF90AF900895EF9226
:10223000FF920F931F93CF93DF930FB6F8940F92F3
:102240002091FD053091FE054091FF05509100065B
:102250000F900FBE8091D6059091D705A091D8051B
:10226000B091D90579018A01E81AF90A0A0B1B0B0A
:102270002093D6053093D7054093D8055093D905C0
:1022800051C088859985AA85BB85E816F9060A0795
:102290001B0760F48E199F09A00BB10B88879987E3
:1022A000AA87BB87EE24FF24870108C0E81AF90A31
:1022B0000A0B1B0B188619861A861B86888599853A
:1022C000AA85BB850097A105B10561F5EC85FD8563
:1022D000309721F06E857F85CE010995E091FB0551
:1022E000F091FC050190F081E02DF093FC05E09366
:1022F000FB05309711F0138212828C819D81AE8193
:10230000BF8188879987AA87BB870097A105B105F8
:1023100031F481EF95E0BE010E947C0D03C0CE0137
:102320000E94840FC091FB05D091FC05209731F0ED
:10233000E114F1040105110509F0A3CFDF91CF915C
:102340001F910F91FF90EF90089580E79FE00E940A
:10235000861487B7826087BF0895CF93DF93DC012F
:102360000FB6F8940F92CD91DC9111970F900FBE9C
:102370008FEFCF3FD80709F43AC0209771F10FB61D
:10238000F8940F92EA81FB811196FC93EE938C8175
:102390009D81892B71F0309729F08C819D819583E7
:1023A000848305C08FEF9FEF11969C938E931D82BF
:1023B0001C820F900FBE8D899E89009721F00E948C
:1023C000C70F1E8A1D8A82E08F87CE0165EF75E0F8
:1023D0000E94F90D21E030E00CC00FB6F8940F9286
:1023E0008FEF9FEF11969C938E930F900FBE20E07E
:1023F00030E0C901DF91CF9108950F931F93CF93E0
:10240000DF938C010FB6F8940F92FC0180819181CB
:102410000F900FBEFFEF8F3F9F0749F40FB6F89460
:102420000F92F801118210820F900FBE02C0892B0B
:1024300019F4C0E0D0E013C0C0E0D0E0C8010E94B1
:10244000AD11C80FD91F0FB6F8940F92F801808113
:1024500091810F900FBE01978E5F9F4F78F3CE0151
:10246000DF91CF911F910F9108950F931F930E94B9
:10247000FD11182F092F0E94580F812F902F1F91A7
:102480000F910895CF93DF93AC01DB010FB6F89461
:102490000F92CD91DC9111970F900FBE8FEFCF3F30
:1024A000D80799F534C08D899E892A813B8184178C
:1024B000950741F50FB6F8940F9211963C932E9321
:1024C0008C819D81892B81F0EA81FB81309729F0F5
:1024D0008C819D819583848305C08FEF9FEF11963A
:1024E0009C938E931D821C820F900FBE82E08F877B
:1024F000CE0165EF75E00E94F90D8FEF9FEF9E8B87
:102500008D8B05C0DE011296E901209761F6DF91FF
:10251000CF910895CF92DF92EF92FF920F931F9386
:10252000CF93DF938C016A017B010FB6F8940F9271
:10253000FC01808191810F900FBE8F5F9F4F59F4F6
:102540000FB6F8940F92F801118210820F900FBE0F
:102550000E94580F32C08091F7059091F80565EF01
:1025600075E00E94520E8091F7059091F805B80130
:102570000E94F90DC091F705D091F80583E08F878F
:10258000C114D104E104F10459F0C701B60142E4D9
:1025900052E1980101E00E94B5109E8B8D8B02C024
:1025A0001E8A1D8A0E94130FE091F705F091F8052D
:1025B000858996898F5F9F4F19F020E030E004C035
:1025C000168A158A2FEF3FEFC901DF91CF911F9136
:1025D0000F91FF90EF90DF90CF900895FC010FB620
:1025E000F8940F92808191818F5F9F4F11F4118237
:1025F00010820F900FBECF010E948A1208950F9390
:102600001F93CF93DF938C01C091DE05D091DF053E
:102610000AC0CE010296B8010E943E29009729F017
:102620000990D881C02D2097A1F7CE01DF91CF91DD
:102630001F910F910895CF93DF93EC016115710500
:1026400011F07D876C8741114E87CE0102960E9462
:10265000FF12892BA9F4EB89FC89309721F0CE0178
:102660000995892B69F48091DE059091DF059983A6
:102670008883D093DF05C093DE0520E030E002C000
:102680002FEF3FEFC901DF91CF91089580E090E0F7
:1026900061E076E043E150E00E94591F892B89F404
:1026A00080910106833169F482E096E06DE373E086
:1026B00042E050E00E942629009719F420E030E023
:1026C00008C084E096E060E473E00E9447292FEFA1
:1026D0003FEFC901089508959F918F910F900BBE10
:1026E0000F900FBE1F9018952F923F924F925F92BE
:1026F0006F927F928F929F92AF92BF92CF92DF9212
:10270000EF92FF920F931F93CF93DF938DB79EB7F6
:10271000E091F705F091F805918B808BE091F5053C
:10272000F091F605F093F805E093F70581E08787CF
:10273000808991898DBF9EBFDF91CF911F910F91AD
:10274000FF90EF90DF90CF90BF90AF909F908F90D1
:102750007F906F905F904F903F902F900895AF9231
:10276000BF92CF92DF92EF92FF920F931F93CF937E
:10277000DF93F82EE92E6B01B42EA52EE901B901E5
:10278000675E7F4F81EF95E00E94240DFC0100976A
:1027900019F420E030E077C0C80FD91FAE014750D0
:1027A0005040BE016B5170408E010A5F1F4F8F2D4C
:1027B0009E2D9C0188E0D9010D909D01D8010D92BC
:1027C0008D018150C1F71E8661507040798B688BF6
:1027D0006F5F7F4FFC8BEB8B8FEE9EEBADEABEED18
:1027E00080839183A283B38384839583A683B783F5
:1027F00080879187A287B38784879587A687B787C5
:1028000080E48A8BFA01D582C68280E883831282B3
:102810001482B182A0828CE693E1DB0152969C93F4
:10282000529753968C938091F3059091F405998378
:102830008883D093F405C093F30582E08F871E8AC6
:102840001D8A188E1F8ACE0165EF75E00E94F90D72
:10285000E091F705F091F805309721F40FB6F89460
:102860000F925CCF8091F5059091F605E817F90776
:1028700049F082E087870FB6F8940F920E94741394
:102880000F900FBE9E01C901DF91CF911F910F9153
:10289000FF90EF90DF90CF90BF90AF900895609140
:1028A000E0057091E1058091E2059091E3050895BE
:1028B000603020E872072EE3820720E0920770F074
:1028C00028EE33E040E050E00E9474276AE0220FD7
:1028D000331F441F551F6A95D1F715C02AE0660FB4
:1028E000771F881F991F2A95D1F769517C4F8F4F09
:1028F0009F4F28EE33E040E050E00E947427C9016A
:10290000DA019C01AD01B901CA010895BC0187B784
:102910008D7F87BF80B7886080BF12BE82E083BF93
:1029200080B790E087709070892BD1F781E086BFE7
:102930000FB6F8940F9281E090E0A0E0B0E0B6B757
:10294000B170E9F3B6BF0894811D911DA11DB6B702
:10295000B170C9F3BB270F900FBEE7E0880F991F36
:10296000AA1FBB1FEA95D1F78093E0059093E1057C
:10297000A093E205B093E30587B78D7F87BF80B74B
:10298000886080BF12BE89E083BF8FE181BF80B7BE
:1029900090E087709070892BD1F782E086BF89E440
:1029A00093E040E050E00E94EC1908959C01FB0187
:1029B00047B7427087B78D7F87BF20313105D1F08F
:1029C000213131053CF42115310581F021303105EB
:1029D00051F40DC02231310569F122313105DCF0AD
:1029E00020323105D9F02FEF3FEF1EC040E082E0EA
:1029F00086BF18C006B601FE05C081E090E0918355
:102A0000808302C0118210824423A1F080819181D1
:102A100080689183808320E030E008C08EE090E001
:102A20009183808320E030E0442331F087B78260D7
:102A300087BF02C020E030E0C90108951F920F92C5
:102A40000FB60F920BB60F9211242F933F934F9313
:102A50005F936F937F938F939F93AF93BF93EF9306
:102A6000FF9389E493E00E94E119FF91EF91BF91F8
:102A7000AF919F918F917F916F915F914F913F9116
:102A80002F910F900BBE0F900FBE0F901F901895B7
:102A9000FC01628173812091E505422F50E0CA015B
:102AA00080739070892B89F024FF04C083E18CB976
:102AB000206403C081E18CB92F7B2093E5058091D0
:102AC000E5058F7C8093E505089527FF02C05598A2
:102AD000089582859385892B89F182859385019755
:102AE000938782878091E605882311F0509A01C070
:102AF0005098DB018D918CB986819781A817B90711
:102B000011F4A481B581B383A283228533858485A2
:102B100095852817390759F5A089B1891097A9F02B
:102B20008FEFAF3FB80719F114968D919C911597CF
:102B3000019615969C938E93149708955598138635
:102B40001286A089B189109729F48FEF9FEF918B9E
:102B5000808B08958FEFAF3FB80749F014968D91A1
:102B60009C911597019615969C938E9314970895B2
:102B7000CF93DF93282F5BB18091E405582B5093BE
:102B8000E4056CB14091E505442361F0633119F42B
:102B90005598406804C0613129F4559A4F774093A5
:102BA000E5055DC0A22FB92F1A962D913C911B9778
:102BB00018968D919C9119972817390720F0586025
:102BC0005093E4054CC0E9012196232BB9F45096AB
:102BD000ED91FC915197309739F48FEF9FEF51961B
:102BE0009C938E9350971FC08FEFEF3FF807D9F05B
:102BF0008481958101969583848315C0442399F03F
:102C00001E968D919C911F97C817D90760F046FDBD
:102C10000AC05D9B05C083E18CB940644F7D01C053
:102C200040624093E505ED91FC91119761931196F7
:102C3000FC93EE932D913C91119716968D919C915A
:102C400017972817390739F414968D919C91159789
:102C500011969C938E931B96DC93CE931A97DF91DB
:102C6000CF910895529B02C089E00895809195000C
:102C700082FF08C08091950081FD02C087E0089521
:102C800088E008958091950081FD02C085E0089557
:102C900086E008958091950085FD02C080E008954A
:102CA0008091950084FD02C082E0089581E008953E
:102CB0008091950083FD02C081E0089582E008952F
:102CC0008091E405682F70E0CB0124E0969587950C
:102CD0002A95E1F79C0140E050E02170307040708F
:102CE000507063FD226062FD24608091E5058823B9
:102CF00021F086FD426087FD486041FF416043FF4F
:102D000044608091E605882321F0CA01B9018064FE
:102D100003C0CA01B9018068589B04C09B01AC0183
:102D2000406103C09B01AC014062B901CA01089532
:102D3000EF92FF920F931F937B018C018091E50529
:102D40008823D9F00FB6F8940F9200FF02C08F7B52
:102D500003C001FF03C080648093E50502FF04C047
:102D60008091E5058F7705C003FF05C08091E505DB
:102D700080688093E5050F900FBE06FF03C081E0D9
:102D80008093E60507FF02C01092E60504FD589AFD
:102D900005FD5898C70181709070892B29F08091AA
:102DA000E4058F7E8093E405E1FE05C08091E40593
:102DB000877F8093E405E2FE05C08091E4058B7F68
:102DC0008093E4050E946016687F6E157F0580077A
:102DD000910719F420E030E002C02FEF3FEFC90166
:102DE0001F910F91FF90EF9008958091950086FFBD
:102DF0000BC0129B02C093E001C091E0809195004E
:102E000080FF07C0946005C0599B02C090E201C0DA
:102E100090E0892F08958091E505882329F420E02A
:102E200030E040E050E004C020E230E040E050E01C
:102E3000B901CA010895EF92FF920F931F937B018E
:102E40008C0165FF0DC08091E505882381F40FB6E4
:102E5000F8940F9281E48093E5050F900FBE07C0B0
:102E60000FB6F8940F921092E5050F900FBE809167
:102E7000E505882329F420E030E040E050E004C07C
:102E800020E230E040E050E02E153F0540075107BA
:102E900019F420E030E002C02FEF3FEFC9011F918D
:102EA0000F91FF90EF900895559A08959091E50540
:102EB0009923A9F096FF13C00FB6F8940F925D9B6B
:102EC00004C081E18CB99F7E01C090619093E505BB
:102ED0008091E5058F798093E5050F900FBE0895E9
:102EE0000FB6F8940F925798569855980F900FBEBA
:102EF0008AE00E9447105498539808951F93182F02
:102F00000E947017812F10FF15C011FF02C0129A86
:102F100001C0129882FF04C080919500816003C0B7
:102F2000809195008E7F80939500599880919500AF
:102F300080640DC015FF02C0599A01C05998809154
:102F400095008E7F80939500809195008F7B809374
:102F500095000FB6F8940F9288EB8AB90F900FBEC8
:102F60000E94F516811719F420E030E002C02FEF1F
:102F70003FEFC9011F9108951F93182F0E947017EA
:102F8000113021F480919500877F05C0123029F41B
:102F9000809195008860809395000FB6F8940F9209
:102FA00088EB8AB90F900FBE8091950083FD02C017
:102FB00081E001C082E0811719F420E030E002C016
:102FC0002FEF3FEFC9011F9108951F93182F0E9403
:102FD0007017113071F0113018F01230C1F40DC0BB
:102FE000809195008F7E80939500809195008F7DD4
:102FF0000CC080919500806103C0809195008F7E08
:1030000080939500809195008062809395000FB623
:10301000F8940F9288EB8AB90F900FBE0E944A165F
:10302000811719F420E030E002C02FEF3FEFC90113
:103030001F9108951F93182F0E9470175298809126
:1030400095008D7F80939500809195008B7F809374
:1030500095001730A1F0183018F41630A9F405C007
:10306000183041F0193081F404C0809195008260DD
:1030700009C0529A8091950082608093950080915A
:1030800095008460809395000FB6F8940F9288EBBA
:103090008AB90F900FBE0E943216811719F420E0F2
:1030A00030E002C02FEF3FEFC9011F9108958F92CA
:1030B0009F92AF92BF92CF92DF92EF92FF920F93C7
:1030C0001F9399B0809090008091950086FF06C074
:1030D00052E0A52EB12CC12CD12C0DC0599906C09F
:1030E00040E1A42EB12CC12CD12C05C038E0A32E78
:1030F000B12CC12CD12C0E9407107B018C01892D91
:1031000090E0382D20E0282B392B40E050E02F5F55
:103110003F4F4F4F5F4FC601B5010E9455279B019E
:10312000AC01C801B7010E947427CA01B9011F91FF
:103130000F91FF90EF90DF90CF90BF90AF909F9056
:103140008F900895EF92FF920F931F937B018C0154
:103150000E9470178091950086FD11C0599B08C090
:10316000E2E0EE0CFF1C001F111FEA95D1F707C02B
:1031700073E0EE0CFF1C001F111F7A95D1F70E941F
:103180000710A80197010E9474272F5F3F4F4F4FF0
:103190005F4F56954795379527952150304029B96F
:1031A000309390000FB6F8940F9288EB8AB90F9085
:1031B0000FBE80E090E01F910F91FF90EF90089577
:1031C00083ED93E060E070E040E050E00E94EC1995
:1031D00089ED93E060E070E040E050E00E94EC197F
:1031E00080E090E0089583ED93E068EB75E148E9B5
:1031F00053E00E94EC19892BA9F489ED93E068E46F
:1032000075E142E853E00E94EC19892B19F420E0A3
:1032100030E00AC083ED93E060E070E040E050E011
:103220000E94EC192FEF3FEFC9010895FB014AB14D
:103230004078579880319105B9F0813191052CF48F
:10324000009771F0019749F40CC08231910549F162
:1032500082319105CCF08097D1F02FEF3FEF1DC068
:1032600040E08CB18CB117C05F9B05C081E090E05D
:103270009183808302C011821082442391F0808167
:10328000918180689183808320E030E008C080E1F4
:1032900090E09183808320E030E0442321F0579A2E
:1032A00002C020E030E0C90108951F920F920FB6CE
:1032B0000F920BB60F9211242F933F934F935F936E
:1032C0006F937F938F939F93AF93BF93EF93FF93EE
:1032D00083ED93E00E94E119FF91EF91BF91AF91CF
:1032E0009F918F917F916F915F914F913F912F911E
:1032F0000F900BBE0F900FBE0F901F901895FB0103
:103300004AB1407255988131910501F182319105A0
:103310002CF4009741F1409731F408C082319105B7
:1033200011F18097B1F02FEF3FEF19C05D9B05C001
:1033300081E090E09183808302C011821082442357
:1033400091F08081918180689183808320E030E0DA
:1033500008C080E190E09183808320E030E0442346
:1033600021F0559A02C020E030E0C90108951F9273
:103370000F920FB60F920BB60F9211242F933F931B
:103380004F935F936F937F938F939F93AF93BF936D
:10339000EF93FF9389ED93E00E94E119FF91EF9184
:1033A000BF91AF919F918F917F916F915F914F915D
:1033B0003F912F910F900BBE0F900FBE0F901F905B
:1033C0001895DC011296ED91FC911397309719F046
:1033D0008D919C9109950895EF92FF920F931F9301
:1033E000CF93DF93EC017B018A01EC81FD81309763
:1033F00019F420E030E006C080E090E060E070E08A
:1034000009959C0119830883FB82EA82C901DF9137
:10341000CF911F910F91FF90EF9008950F931F93FD
:10342000CF93DF93FC01C189D289EDADFEAD099543
:103430008C01009749F4C75BDF4FE881F98160E0B8
:1034400072EC81E090E00995C801DF91CF911F9166
:103450000F910895DC011296ED91FC91139701886C
:10346000F289E02D0FB6F8940F9280A991A90F90E0
:103470000FBEBC0180E090E00895CF92DF92EF9202
:10348000FF920F931F93CF93DF93EC018B017A018F
:1034900069018C819D81288539850FB6F8940F923A
:1034A000198618860F900FBE2617370779F0232B41
:1034B00011F00E9486200115110511F1C8010E942A
:1034C0008C20009731F42FEF3FEF1CC06115710580
:1034D000B9F09D838C83998388839B838A83800F33
:1034E000911F9F838E83FD86EC86DF86CE861B86AA
:1034F0001A860FB6F8940F92198708870F900FBE9F
:1035000020E030E0C901DF91CF911F910F91FF9032
:10351000EF90DF90CF900895CF92DF92EF92FF92DD
:103520000F931F93CF93DF93FB016A01DA01ED90B4
:10353000FD900D911C912E2DDC015196CD91DC91C9
:103540005297E150F140E133F10540F4EA5BFF4F5F
:10355000EE0FFF1F0590F491E02D09940FEF1FEF80
:1035600097C1C75BDF4F43C0C55BDF4FD5C0C35BAF
:10357000DF4FE881F981822F09958C0189C1C15BF8
:10358000DF4F2AC1CF5ADF4FF4CFCD5ADF4F24C1CE
:10359000CB5ADF4FEECFC95ADF4F1EC1E6FE11C036
:1035A0006EA57FA54AA95BA92CA93DA9CE01869647
:1035B0000E943D1ACD5BDF4FE881F981C354D040B2
:1035C0000995E7FE0AC0688D798D4C8D5D8D2E8D35
:1035D0003F8DCE0140960E943D1AC75ADF4F8FE3C0
:1035E0009FEFAFEFBFEFE822F9220A231B23E88108
:1035F000F981C801B7010995C0CFC55ADF4FE881ED
:10360000F981CB55D04009959B01AC01D6016D9352
:103610007D938D939C93139788A999A9892B31F455
:103620002064F60120833183428353838A8D9B8DEE
:10363000892B09F02BC1F60180819181A281B38190
:10364000806820C1E886F9860A871B871FC18885A4
:103650009985AA85BB8515C1EC86FD860E871F87D7
:1036600015C18C859D85AE85BF850BC1688179812B
:103670008A819B81EE2031F0B0E4CB2ED12CE12C5D
:10368000F12C70C0AFEBCA2EAFEFDA2EAFEFEA2EFF
:10369000AFEFFA2E74C0888186FF92C08CC0C880BC
:1036A000D980EA80FB806FC0688179818A819B81A3
:1036B000EE2031F0C12CF8E0DF2EE12CF12C52C0CD
:1036C000EFEFCE2EE7EFDE2EEFEFEE2EEFEFFE2E3A
:1036D00056C0C95BDF4FE881F9810995D6016D932A
:1036E0007D938D939C931397D1C0688179818A8152
:1036F0009B81EE2031F0C12C50E1D52EE12CF12C34
:1037000031C04FEFC42E4FEED42E4FEFE42E4FEFCB
:10371000F42E35C0C95BDF4FE881F9810995F601C8
:103720006083718382839383B1C088819981AA81E8
:10373000BB81EE2011F0806801C08F778883998368
:10374000AA83BB83A3C0888187FF3AC034C0688145
:1037500079818A819B81EE2051F0C12C34E0D32EF7
:10376000E12CF12CC62AD72AE82AF92A0CC02FEF1F
:10377000C22E2BEFD22E2FEFE22E2FEFF22EC622EB
:10378000D722E822F922CB5BDF4FE881F981C554CB
:10379000D040C701B60109958C01009709F078C0A7
:1037A000C882D982EA82FB8273C088819981AA810A
:1037B000BB8192FF05C081E090E0A0E0B0E061C075
:1037C000D6011D921D921D921C9213975FC0C35A81
:1037D000DF4FCFCEC15ADF4FE881F981099590E0E4
:1037E0004EC04C8D5D8D2E8D3F8DCE014096B70124
:1037F0000E943D1A8C01009709F04AC0CD5BDF4F53
:10380000E881F981099544C0888D998D38C04AA90D
:103810005BA92CA93DA9CE018696B7010E943D1A4D
:10382000ACCE8EA59FA52BC00FB6F8940F92FD8E3F
:10383000EC8E0F900FBE2AC08C8D9D8D20C00FB6D0
:10384000F8940F92FF8EEE8E0F900FBE1FC08E8DDC
:103850009F8D15C00FB6F8940F92FBAAEAAA0F909D
:103860000FBE14C08AA99BA90AC00FB6F8940F9284
:10387000FDAAECAA0F900FBE09C08CA99DA9A0E0DB
:10388000B0E0F60180839183A283B38300E010E06F
:10389000C801DF91CF911F910F91FF90EF90DF90C2
:1038A000CF900895AF92BF92CF92DF92EF92FF92A6
:1038B0000F931F93CF93DF935C017A01FC01C189C1
:1038C000D28913E0C12ED12CC422D522C114D10437
:1038D00081F0CE01409660E470E048E250E028E3D9
:1038E00030E00E943D1A892BA1F4F1E0CF16D104FB
:1038F00099F0CE01869660E071E040ED50E020EF57
:1039000030E00E943D1A892B39F08C899D890E94F4
:1039100086200FEF1FEF32C086E090E00E948C20DF
:10392000FC018C01009739F48C899D890E948620C6
:103930008AA59BA5ECCF80E090ECE822F922888153
:103940009981AA81BB8120E0E21620E8F20611F4F9
:103950008F7701C0806888839983AA83BB83118293
:103960001082B382A2821582148281E0C816D1042B
:1039700029F0CD5BDF4FE881F9810995C801DF911E
:10398000CF911F910F91FF90EF90DF90CF90BF905C
:10399000AF900895AF92BF92CF92DF92EF92FF92D5
:1039A0000F931F93CF93DF93EC015A010FB6F89456
:1039B0000F928A8D9B8D860F971F9B8F8A8F0A8D02
:1039C0001B8D0F900FBE90E2C92ED12CCC0EDD1EA8
:1039D00081E4E82EF12CEC0EFD1E14C0D701ED9110
:1039E000FC9109954C855D856E857F85C6010E9499
:1039F0008A12892B51F40FB6F8940F920A8D1B8D01
:103A00000F900FBEA016B10648F3C801DF91CF9109
:103A10001F910F91FF90EF90DF90CF90BF90AF90EC
:103A20000895EF92FF920F931F93CF93DF937C0142
:103A3000DC011296ED91FC911397C189D289CE01D8
:103A400060E070E040E050E00E94CA1C892B19F051
:103A50000FEF1FEF02C000E010E0C75ADF4FE88110
:103A6000F981C955D04060E072E080E090E00995AE
:103A7000C7010E948620CE01409660E070E040E0E1
:103A800050E020E030E00E943D1ACE01869660E0D2
:103A900070E040E050E020E030E00E943D1ACE01AE
:103AA000C6960E943512C801DF91CF911F910F91E8
:103AB000FF90EF9008958F929F92AF92BF92CF9216
:103AC000DF92EF92FF920F931F93CF93DF936B01DF
:103AD0007A015B01DC011296ED91FC911397C1898B
:103AE000D28988819981AA81BB8193FF0AC07BAF6B
:103AF0006AAF59AF48AFCD5BDF4FE881F9810995D7
:103B0000B4C06EA57FA56115710509F4ABC0C114E1
:103B1000D10471F44AA95BA92CA93DA9CE018696CE
:103B20000E943D1ACD5BDF4FE881F98109951EC0E7
:103B300026E3822E912C8C0E9D1E8E010D5B1F4F55
:103B40000FB6F8940F92A8A9B9A90F900FBE1097BD
:103B5000A9F4D801ED91FC910995488559856A85AC
:103B60007B85C4010E948A12892B19F0EE24FF2460
:103B70007CC08EA59FA5892B19F774C0888187FF0B
:103B800033C000E010E040E050E07AE029C04A177E
:103B90005B0708F04BC0E8A5F9A56191F9A7E8A774
:103BA00028A539A58CA59DA52817390721F48AA534
:103BB0009BA599A788A76D3011F06A3049F48CADA8
:103BC000882311F0861751F46CAFF501719303C08F
:103BD0001CAEF50161935F010F5F1F4F4F5F5F4F99
:103BE0000E151F05A0F222C08701AE15BF0508F40F
:103BF0008D0140E050E016C0E8A5F9A5D601A40F5C
:103C0000B51F81918C93F9A7E8A728A539A58CA5A4
:103C10009DA52817390721F48AA59BA599A788A7F0
:103C20004F5F5F4F4017510738F3A8014115510509
:103C3000B9F00FB6F8940F9288A999A9841B950B37
:103C400099AB88AB0F900FBE28A939A98AA99BA967
:103C50002817390728F4CD5BDF4FE881F9810995F2
:103C6000780103C0EE24EA94FE2CC701DF91CF91C6
:103C70001F910F91FF90EF90DF90CF90BF90AF908A
:103C80009F908F9008958F929F92AF92BF92CF9204
:103C9000DF92EF92FF920F931F93DF93CF9300D0A9
:103CA000CDB7DEB7FB016A015901DC0151968D9059
:103CB0009C905297D4012D913D914D915C91139719
:103CC00034FF25C095967C936E9394979396DC92DF
:103CD000CE929297E1E4F0E08E0E9F1ED401ED911A
:103CE000FC918FEB9FEF880E991E0995D4011C96CD
:103CF0004D915D916D917C911F97C40180960E94BA
:103D0000EE128C01009709F0B4C08601B2C0D40154
:103D100058968D919C915997892B19F40FEF1FEFAD
:103D2000A8C06115710549F4C40160E070E040E08D
:103D300050E00E94CA1C8C019CC079018A0179E084
:103D400016950795F794E7947A95D1F7BE2DB17043
:103D5000BA8367E056954795379527956A95D1F7C9
:103D6000822F817089830FB6F8940F92D4015A96EE
:103D70004D915C915B970F900FBE7F0100E010E0CA
:103D800060E070E05BC09B01240F351FF401868D5D
:103D9000978D2817390788F0448D558DC4010E94EE
:103DA000CA1CAC01D4015C968D919C915D978417DF
:103DB000950708F45EC060E070E0A114B10419F04A
:103DC000F701849102C0D7018C91B981B13069F4B7
:103DD0008A3081F4EA81E13021F4F2E0FA83F98358
:103DE00002C082E089838DE00AC09981923011F48B
:103DF000A1E0A9830894E11CF11C0F5F1F4FD401BF
:103E00005096ED91FC91519781935196FC93EE93CE
:103E1000509750962D913C91519756968D919C912B
:103E200057972817390741F454968D919C915597CF
:103E300051969C938E9350976F5F7F4F0C151D0585
:103E40000CF4A1CF61157105A1F00FB6F8940F9293
:103E5000F401828D938D680F791F738F628F0F909D
:103E60000FBE81E490E0880E991ED401ED91FC9183
:103E70000995C8010F900F90CF91DF911F910F917D
:103E8000FF90EF90DF90CF90BF90AF909F908F907A
:103E90000895FC018281938121E030E00E94431E5D
:103EA0000895FC018281938120E030E00E94431E4E
:103EB00008950E945C1F08959C01CB01B9010E94E6
:103EC000752980E090E00895CF93DF93DC0112968E
:103ED000CD91DC911397209729F41B96ED91FC91DD
:103EE0001C9703C0ED89FE89CE010995DF91CF9122
:103EF0000895FC018081918160E070E040E050E035
:103F00000E94BB26892B19F420E030E002C02FEF7D
:103F10003FEFC9010895FC01808191810895CF92FE
:103F2000DF92EF92FF920F931F93CF93DF936C0179
:103F3000CB010E94D4267C012FEF8F3F920709F41A
:103F400040C0E5EEF3E003E010E00DC00F5F1F4F4F
:103F500032960830110539F487E190E09093150608
:103F6000809314062EC080819181892B79F787E098
:103F700090E00E948C20EC01000F111F01521C4F99
:103F8000D801CD93DC932097E1F0C601B7010E94E0
:103F90009C2099838883D801ED91FC918F5F9F4F7E
:103FA00039F4CF010E948620F8011182108209C0E5
:103FB000F382E2821482D801ED91FC91168215827F
:103FC00002C0E0E0F0E0CF01DF91CF911F910F91AF
:103FD000FF90EF90DF90CF900895CF92DF92EF9215
:103FE000FF920F931F93CF93DF937C016A018B01A4
:103FF000E70110C0C6010E9408272FEF8F3F9207EC
:1040000021F41882EE24FF2409C089930150104046
:104010000A9719F0023011056CF71882C701DF9179
:10402000CF911F910F91FF90EF90DF90CF90089567
:10403000DF93CF93CDB7DEB79E01275F3F4F8D81D2
:104040009E816F817885A9010E943920CF91DF91EF
:1040500008959C01D9010D900020E9F71197A21B4A
:10406000B30BFB0180819181B901AD010E94BB2698
:104070000895FC01DB019A01608171818BEB96E26E
:10408000AD010E946C230895DF93CF93CDB7DEB7C7
:104090009E01275F3F4F8D819E816F817885A901A9
:1040A0000E947020CF91DF910895CF93DF93EC01B0
:1040B00020E030E009C0FB01E20FF31F808311967E
:1040C000B983A8832F5F3F4F4217530729F0A88178
:1040D000B9818C91882379F7C901DF91CF91089537
:1040E000DF93CF9300D0CDB7DEB7FB019A019A835F
:1040F000898385E590E2BE016F5F7F4FAF010E942B
:10410000FB200F900F90CF91DF910895BC0181EFBC
:1041100095E00E947C0D0895BC0181EF95E00E941E
:10412000240D9C01009731F48CE090E090931506EB
:1041300080931406C9010895DF92EF92FF920F93C6
:104140001F93DF93CF93CDB7DEB729970FB6F894BF
:10415000DEBF0FBECDBFD82E7B01FE013196282FCA
:10416000392F8901AE01475F5F4F03C081930F5F15
:104170001F4F202F2D19D8018C91882329F08A33C5
:1041800019F0E417F50791F7CE010196FC01E20F53
:10419000F11D10820E94FF12DC01009749F482E0B9
:1041A00090E090931506809314062FEF3FEF14C014
:1041B000F80180818A3319F060E070E003C0B80133
:1041C0006F5F7F4F5D96ED91FC915E97CD01A701EA
:1041D00020E030E009959C01C90129960FB6F894BA
:1041E000DEBF0FBECDBFCF91DF911F910F91FF902A
:1041F000EF90DF9008952F923F924F925F926F92CF
:104200007F928F929F92AF92BF92CF92DF92EF9266
:10421000FF920F931F93DF93CF93CDB7DEB76497D1
:104220000FB6F894DEBF0FBECDBF2C013B011A01C3
:1042300059011B8ACC24DD24D1011C91112309F4DE
:10424000C2C10894211C311C812F90E00E94FC28DF
:10425000892B99F0C301BE016F5F7F4F41E050E0B1
:10426000F2010995019741F7898190E00E94FC28AD
:10427000892B81F7DD24D394DFCF1532A9F0DD201F
:1042800079F4C301BE016F5F7F4F41E050E0F2015E
:104290000995019729F0BB89BB2309F094C1D1C1CD
:1042A0008981811741F28FC1F10121911F012532CE
:1042B00091F4DD2059F4C301BE016F5F7F4F41E0EF
:1042C00050E0F2010995019709F098C08981853283
:1042D00009F4B1CF78C100E010E0FF241A8A2A3235
:1042E00019F482E0F82A1DC02C3619F491E0F92A5D
:1042F00018C0283621F4AA89AF5FAA8B12C0822F7A
:1043000080538A3090F4C801A3E0880F991FAA95C2
:10431000E1F7000F111F080F191F020F111D0053A5
:104320001040F10121911F01DACF2936D1F02A3650
:1043300048F42835F9F0233609F49FC1222309F403
:1043400080C10AC0233729F02837A1F02F3621F485
:104350000CC0F2E0FC8B02C083E08C8BEAE0EE2E16
:104360000FC093E09C8BEE240BC0A3E0AC8B78E0F5
:10437000E72E06C0B0E1FB2AE3E0EC8B60E1E62E1D
:10438000DD2009F063C044C0F1FC10C026C0DD2070
:1043900059F4C301BE016E5F7F4F40E150E0F2016E
:1043A00009951816190654F50051104001311105F0
:1043B00070F70115110541F1DD2031F5C301BE0192
:1043C0006E5F7F4FA801F201099518161906E4F0F7
:1043D0008B89882309F0F7C034C1DD20A1F4D50111
:1043E0006D917C91C301A801F20109951816190677
:1043F0002CF4E2E0F0E0AE0EBF1E05C0FB89FF2307
:1044000009F0E1C01EC1C3948B898F5F8B8B13CFE2
:10441000C301BE016F5F7F4F41E050E0F20109959B
:104420000197A1F09B89992309F0CDC00AC1C3016E
:10443000BE016F5F7F4F41E050E0F20109950197A7
:1044400029F0AB89AA2309F0BEC0FBC0898190E0A6
:104450000E94FC28892B59F7BC89B23009F042C070
:104460000115110511F40FEF1FEFF1FC0EC014C080
:104470000150104099F1C301BE016F5F7F4F41E0D1
:1044800050E0F2010995019749F5898190E00E9479
:10449000FC28892B69F322C0F501E080F18010C06F
:1044A000D701DD927D010150104089F0C301BE01AA
:1044B0006F5F7F4F41E050E0F2010995019739F4B9
:1044C000D9808D2D90E00E94FC28892B49F3E2E0F1
:1044D000F0E0AE0EBF1ED7011C92C394BB89BF5F34
:1044E000BB8BA9CEC80101970F9710F00FE010E029
:1044F000ECE2FE2A52E0852E912C8C0E9D1E5CC0B3
:104500009981903359F4EE2021F4F0E1FF2A48E03C
:10451000E42EF5FE26C083EDF8223CC0892F81539E
:10452000873030F4EE2011F43AE0E32EB3EE23C0EE
:10453000892F8853823058F4EE2019F42AE0E22EB5
:1045400003C0E8E0EE15E0F5F3EEFF2223C0892F6B
:104550008154863018F08052863030F48AE08E150F
:1045600078F5A3EEFA2216C09D3211F09B3229F4A1
:10457000F2FE26C0BBEFFB220DC0983729F098351C
:1045800019F0DD24D3941DC0F4FE1AC0EFEEFE2214
:1045900080E1E82ED4019D934D010230110550F0C9
:1045A000C301BE016F5F7F4F41E050E0F20109950A
:1045B000019731F4015010400115110509F0A0CF09
:1045C000DD24F3FE03C02C2D30E03DC0F1FC35C0EE
:1045D000F4011082CE01029660E070E04E2D50E0B2
:1045E0000E94CD27F0FE08C0D501ED91FC916083BB
:1045F00071838283938309C0FA89F13059F4D5011C
:10460000ED91FC91CB0160839183E2E0F0E0AE0E8E
:10461000BF1E12C095012E5F3F4FFA89FF2329F07C
:10462000D501ED91FC91608306C0D501ED91FC911F
:10463000CB01608391835901C394BB89BF5FBB8B5E
:10464000FBCD2FEF3FEFC90164960FB6F894DEBFA4
:104650000FBECDBFCF91DF911F910F91FF90EF90D3
:10466000DF90CF90BF90AF909F908F907F906F9092
:104670005F904F903F902F9008950115110509F01C
:1046800083CE01E010E080CECF92DF92EF92FF92D6
:104690000F931F93CF93DF936C018B017A01E90194
:1046A00007C0C801B70140E150E0F60109956097E5
:1046B000C131D105B4F71C161D062CF4C801B70191
:1046C000AE01F6010995DF91CF911F910F91FF90F7
:1046D000EF90DF90CF9008952F923F924F925F928C
:1046E0006F927F928F929F92AF92BF92CF92DF9202
:1046F000EF92FF920F931F93DF93CF93CDB7DEB767
:104700006D970FB6F894DEBF0FBECDBF998F888F1F
:104710007B8F6A8F1A0149011D8A1C8A9E012E5EB9
:104720003F4F3D8F2C8FB10103C00894211C311CD9
:10473000D101FC90FF2019F0B5E2FB16B1F7810121
:10474000061B170B61F08A8D9B8DA801E88DF98DF2
:1047500009952C893D89200F311F3D8B2C8BFF2023
:1047600009F4EEC20894211C311C19821E8A4424CB
:10477000552466246A94762CD101BD901D01B0E2C7
:10478000BB1621F489818823B9F703C0EBE2BE167A
:1047900011F4B982F1CFFDE2BF1621F42E89246015
:1047A0002E8BEACF33E2B31621F44E8941604E8B53
:1047B000E3CF80E3B81621F49E8990619E8BDCCF15
:1047C000ACE6BA1621F4BE89B860BE8BD5CFEAE755
:1047D000BE1691F2FAE2BF1681F4C4010296D4012A
:1047E0004D905C9057FE07C0BE89B460BE8B50945C
:1047F0004194510853944C01BFCFEEE2BE1691F59F
:10480000D1018C918A3219F06624772422C0089451
:10481000211C311CF4016080718022E030E0820EA6
:10482000931E1DC0C301E3E0880F991FEA95E1F7CD
:10483000660C771C860D971D622E772467FC70949A
:10484000A0EDBFEF6A0E7B1E680E791E0894211C36
:10485000311CF1012081822F80538A3018F377FEBA
:104860008BCF87CF8B2D8153893028F54B2C552446
:1048700020ED3FEF420E531E17C0C20163E0880FC8
:10488000991F6A95E1F7440C551C840D951D422E25
:10489000552447FC5094A0EDBFEF4A0E5B1E480E16
:1048A000591E0894211C311CF1012081822F805354
:1048B0008A3018F361CFF401BF8A27E62B15E8F0A0
:1048C00035E6B31608F0B0C140E5B416C1F14B159A
:1048D00048F085E4B81609F4A7C197E4B91609F0C1
:1048E000A7C1A2C1A3E6BA1611F1AB1508F475C0B1
:1048F000B8E5BB1609F09CC138C120E7B21609F42F
:1049000034C12B1548F039E6B31609F466C04FE6FA
:10491000B41609F08DC1D9C08F89853709F45CC000
:10492000883709F422C1833709F082C128C0A2E088
:10493000B0E08A0E9B1E80818A8319827FC122E0AB
:1049400030E0820E931EE080F180E114F10439F42E
:104950004FEEC42E43E0D42E33E73F8B1DC0C7017A
:104960000E940B2901960E948C20182F092FB70155
:104970000E940429212F302FC9016C0106C082E05A
:1049800090E0880E991EC080D180C114D10421F41A
:104990003FEEC32E33E0D32E77FC0FC0C60160E09C
:1049A00070E0A3010E941929009789F08C010C196D
:1049B0001D09601671065CF00BC0D6010D90002039
:1049C000E9F78D01015010400C191D0901C0830148
:1049D0001982EE24FF243BC11982BE89B3FF09C0AE
:1049E00024E030E0820E931EE080F180028113818A
:1049F00013C0C4010296D4012D913C91B5E7BB16BA
:104A000029F44C01790100E010E015C04C01790156
:104A10000027F7FC0095102FE5E7BE1661F017FFA1
:104A20000AC010950095F094E094E11CF11C011D62
:104A3000111DFDE2F98377FC03C02E892F7E2E8B9A
:104A4000E114F1040105110549F46114710461F4E4
:104A500022E1C22ED12CCC0EDD1E31C03AE0E3168D
:104A6000F1040105110548F491E1C92ED12CCC0EB9
:104A7000DD1E8E2D805D898B22C082E1C82ED12C57
:104A8000CC0EDD1EC801B7012AE030E040E050E066
:104A90000E947427605DD6016E936D01C801B70155
:104AA0002AE030E040E050E00E947427C901DA01BA
:104AB0007C018D01E114F1040105110519F70C8D3C
:104AC0001D8D0C191D09BF8AADC0BE89B3FF09C079
:104AD00024E030E0820E931E608171818281938197
:104AE00009C082E090E0880E991E80819181BC010E
:104AF00080E090E0198277FC03C0AE89AF7EAE8B78
:104B0000611571058105910549F46114710431F451
:104B1000B2E1CB2ED12CCC0EDD1E20C0A2E1CA2EDC
:104B2000D12CCC0EDD1E262F2770205DF60122939E
:104B30006F01F3E09695879577956795FA95D1F78C
:104B4000611571058105910571F7FE89F0FF06C0B9
:104B5000203321F0D601E0E3EE936D010C8D1D8D25
:104B60000C191D09FFE6FF8B5DC020E7B21679F432
:104B700082E090E0880E991E808191819C0140E046
:104B800050E09E8991609E8BA8E7AF8B16C0BE89CE
:104B9000B3FF09C024E030E0820E931E20813181F2
:104BA0004281538109C082E090E0880E991E808185
:104BB00091819C0140E050E0BF8A77FC03C09E8950
:104BC0009F7E9E8BAF89A83519F066EF73E002C017
:104BD00067E074E01982E2E1CE2ED12CCC0EDD1E0E
:104BE000F901EF70F070E60FF71F8081F6018293F4
:104BF0006F0194E056954795379527959A95D1F78B
:104C0000211531054105510559F7FE89F0FF06C010
:104C1000D601EF89EE93E0E3EE936D010C8D1D8DCF
:104C20000C191D09730113C024E030E0820E931E9D
:104C3000BB2009F485C0BA821982BF8A82E0C82EDF
:104C4000D12CCC0EDD1EEE24FF2401E010E0580133
:104C50000E151F050CF457018981882319F008945B
:104C6000A11CB11C9E89892F90E09B8B8A8B3C01F3
:104C7000A4E16A2277246114710459F492012A197B
:104C80003B09888D998D6A8D7B8D48E154E00E94A7
:104C900044238981882351F08A8D9B8DBE016F5FEB
:104CA0007F4F41E050E0E88DF98D0995F0E16F16F6
:104CB000710459F492012A193B09888D998D6A8DE6
:104CC0007B8D48E254E00E944423E01AF10A888D6B
:104CD000998D6A8D7B8D48E254E097010E944423B0
:104CE0000115110541F08A8D9B8DB601A801288D13
:104CF000398DF90109953F89303519F4C6010E94B3
:104D000086204A8942FF0BC092012A193B09888DEF
:104D1000998D6A8D7B8D48E154E00E9444234A14AA
:104D20005B043CF08C899D89840D951D9D8B8C8B3B
:104D3000FACCAC89BD89AA0DBB1DBD8BAC8BF3CC65
:104D40008C899D896D960FB6F894DEBF0FBECDBFDE
:104D5000CF91DF911F910F91FF90EF90DF90CF9057
:104D6000BF90AF909F908F907F906F905F904F908B
:104D70003F902F900895DC011296ED91FC911397CE
:104D8000309729F41796ED91FC91189708C0018C83
:104D9000F28DE02D309719F42FEF3FEF03C0CD01D6
:104DA00009959C01C9010895FC018081823751F069
:104DB000873719F08136C9F40AC081E093E042E0F8
:104DC00053E009C080E090E042E050E004C089E098
:104DD00091E04AE051E060E070E411C02B3271F0E4
:104DE000223619F460E070E80AC086E190E0909302
:104DF0001506809314062FEF3FEF08C0CA013196C5
:104E00002081222359F79C01262B372BC9010895B5
:104E10000F931F93DF93CF930F92CDB7DEB78C0123
:104E2000FC01848183FF05C0877F848325813681CF
:104E30001CC0F80180819181BE016F5F7F4F41E00E
:104E400050E00E943C278130910561F0F8012481F7
:104E5000892B11F0206102C02062F80124832FEF1A
:104E60003FEF03C08981282F30E0C9010F90CF9117
:104E7000DF911F910F910895DC011296ED91FC9145
:104E80001397309729F41596ED91FC91169708C069
:104E90000788F08DE02D309719F42FEF3FEF03C016
:104EA000CD0109959C01C9010895629FD001739FAE
:104EB000F001829FE00DF11D649FE00DF11D929FB6
:104EC000F00D839FF00D749FF00D659FF00D9927F5
:104ED000729FB00DE11DF91F639FB00DE11DF91F19
:104EE000BD01CF0111240895A1E21A2EAA1BBB1BFC
:104EF000FD010DC0AA1FBB1FEE1FFF1FA217B307A6
:104F0000E407F50720F0A21BB30BE40BF50B661FBB
:104F1000771F881F991F1A9469F76095709580957F
:104F200090959B01AC01BD01CF0108952F923F9256
:104F30004F925F926F927F928F929F92AF92BF92A9
:104F4000CF92DF92EF92FF920F931F93CF93DF9355
:104F5000CDB7DEB7CA1BDB0B0FB6F894DEBF0FBEB2
:104F6000CDBF09942A88398848885F846E847D84FF
:104F70008C849B84AA84B984C884DF80EE80FD8001
:104F80000C811B81AA81B981CE0FD11D0FB6F89477
:104F9000DEBF0FBECDBFED0108952F923F925F920D
:104FA0006F927F928F929F92AF92BF92CF92DF9239
:104FB000EF92FF920F931F93CF93DF938C011B010E
:104FC000EA016115710519F0FB0191838083209737
:104FD00049F0CE010297839728F020E030E040E0CE
:104FE00050E0F6C0F801A1908F018A2D90E00E9458
:104FF000FC28892BB9F7FDE2AF1631F4F801A19036
:105000008F015524539407C0FBE2AF1619F4F80141
:10501000A1908F015524209719F0C031D105C1F41A
:10502000F0E3AF1679F4F8018081883711F0883504
:1050300049F4F801A1800E5F1F4FF2E05F2AC0E142
:10504000D0E006C0209721F480E3A816E9F427C039
:10505000C830D10531F1C930D10524F4C230D105B1
:1050600031F50CC0CA30D10589F0C031D105F9F451
:10507000C12CD12CE12CB8E0FB2E28C0C12CD12CA6
:10508000E12CA0E4FA2E22C0CAE0D0E0FCECCF2E46
:10509000FCECDF2EFCECEF2EFCE0FF2E17C0C8E08E
:1050A000D0E0C12CD12CE12CE0E1FE2E0FC09E01FE
:1050B000442737FD4095542F60E070E080E090E891
:1050C0000E947427C901DA016C017D0120E030E003
:1050D00040E050E060E03E01882477FC8094982C0A
:1050E00070EDB72EBA0CE9E0EB1570F48A2D8154FF
:1050F0008A3118F499ECB92E06C08A2D81568A316E
:1051000050F589EAB82EBA0C8B2D90E08C179D07CC
:1051100014F56F3FE1F0C216D306E406F506B0F0D1
:10512000CA01B901A40193010E9455279B01AC015A
:105130002B0D311D411D511D2130F0E03F07F0E0E6
:105140004F07F0E85F0710F461E001C06FEFF8016E
:10515000A1908F01C5CF2114310481F0662331F075
:1051600001501040F1011183008308C051FE1AC0A4
:1051700002501040F1011183008314C067FF12C078
:1051800050FC05C02FEF3FEF4FEF5FE704C020E07A
:1051900030E040E050E882E290E090931506809382
:1051A000140616C050FE08C05095409530952195C4
:1051B0003F4F4F4F5F4F0CC057FF0AC082E290E055
:1051C00090931506809314062FEF3FEF4FEF5FE7A4
:1051D000B901CA01DF91CF911F910F91FF90EF901C
:1051E000DF90CF90BF90AF909F908F907F906F9007
:1051F0005F903F902F900895911187C0803219F0F1
:1052000089508550D0F70895FB01DC0105900D927F
:105210000020E1F70895FC0105900020E9F7809552
:1052200090958E0F9F1F089547EE55E00E944E29DE
:105230000895FC014150504030F001900616D1F71E
:105240003197CF010895882799270895FB01DC0144
:1052500004C08D910190801921F441505040C8F74D
:10526000881B990B0895FC018191861721F08823F2
:10527000D9F7992708953197CF010895FB01DC01F3
:105280008D91019080190110D9F3990B0895FB01BC
:10529000DC0101900D920020E1F70895FA01A1913F
:1052A000B081009719F41097E1F0CD01DC01CD0138
:1052B0000D90002011F4C00113C0FB0121912223A5
:1052C00019F02015D9F7F3CFFB012191201519F41E
:1052D0001E92119606C02223C1F70D900020A1F75F
:1052E000D001FA01A193B0830895DC01CB01FC0148
:1052F000E199FECF06C0FFBBEEBBE09A31960DB23E
:105300000D9241505040B8F7089599278827089585
:04531000F894FFCF3F
:105314007431007432007433007434007561727433
:105324003000722B000D0A0D0A3D2057656C636F27
:105334006D6520746F2052656D4C6162204B322084
:105344003D0D0A00312E6B6F6E74726F6C206D6FA1
:10535400746F7220737465707065720D0A322E74E6
:10536400616D70696C6B616E2070656E67756B75CD
:1053740072616E20737568750D0A332E6B6F6E74CF
:10538400726F6C206C65640D0A006D6173756B6BD4
:10539400616E2070696C6968616E3A002563000D66
:1053A4000A0D0A6B6F6E74726F6C206D6F746F727E
:1053B40020737465707065720D0A00706572696E91
:1053C400746168205B3C737465703E3C7370616308
:1053D400653E3C313D6B616E616E3E3C7370616352
:1053E400653E3C73706565643E5D3A00200025644B
:1053F400000D0A6D656D75746172206D6F746F7246
:105404002025642F32303020737465702064656EFB
:1054140067616E206B656365706174616E202564DD
:10542400206B656B616E616E0D0A000D0A6D656D12
:1054340075746172206D6F746F722025642F323021
:105444003020737465702064656E67616E206B65CF
:105454006365706174616E202564206B656B69728D
:10546400690D0A000D0A0D0A3D3D3D3D3D3D3D7C63
:105474007C4B327C7C3D3D3D3D3D3D3D0D0A5375AD
:105484006875203A20253264206F430D0A4B656C01
:10549400656D626170616E203A2025326420252595
:1054A4000D0A000D0A0D0A6B6F6E74726F6C206C1E
:1054B40065640D0A00706572696E746168205B3CF6
:1054C40075727574616E206C65643E3C73706163C3
:1054D400653E3C6475726173693E3C7370616365DB
:1054E4003E3C6A756D6C616820626C696E6B5D3AF6
:1054F400000D0A6B6F6E74726F6C206C65642025EE
:105504006420626C696E6B20736562616E79616B95
:105514002025642064656E67616E206B6563657029
:105524006174616E2025660D0A008025000000006C
:1055340080C054E3253DA2E73BB60AD7233CACC563
:10554400A73869646C65006D61696E00FF4F530094
:1055540065746865726E75740000000000D61400EE
:105564000075617274300000000005000000000046
:1055740072030E1A8C1A5B1D511F491F521C111DF8
:105584002A1A0000000000000000000000000000D3
:105594000000000000000000000000000000000007
:1055A40000000000000000000000000000000000F7
:1055B400000000000000000000000000000000F3F4
:1055C40018E018541756171B170B17A21857181A58
:1055D400183216E5174A16BC175816981660167E28
:1055E40017F516000000001619000000007F1901CD
:1055F400000200030000000000000000000000287A
:105604006E756C6C290030313233343536373839A5
:10561400616263646566003031323334353637385D
:1056240039414243444546002020202020202020A8
:1056340020202020202020203030303030303030E6
:1056440030303030303030300000000000000000D6
:105654000001020203030303040404040404040415
:1056640005050505050505050505050505050505E6
:1056740006060606060606060606060606060606C6
:1056840006060606060606060606060606060606B6
:105694000707070707070707070707070707070796
:1056A4000707070707070707070707070707070786
:1056B4000707070707070707070707070707070776
:1056C4000707070707070707070707070707070766
:1056D4000808080808080808080808080808080846
:1056E4000808080808080808080808080808080836
:1056F4000808080808080808080808080808080826
:105704000808080808080808080808080808080815
:105714000808080808080808080808080808080805
:1057240008080808080808080808080808080808F5
:1057340008080808080808080808080808080808E5
:1057440008080808080808080808080808080808D5
:00000001FF
